{
  "contractName": "Arbitrator",
  "abi": [
    {
      "constant": false,
      "inputs": [
        {
          "name": "_fee",
          "type": "uint256"
        }
      ],
      "name": "setDisputeFee",
      "outputs": [],
      "payable": false,
      "stateMutability": "nonpayable",
      "type": "function"
    },
    {
      "constant": false,
      "inputs": [
        {
          "name": "realitycheck",
          "type": "address"
        },
        {
          "name": "question_id",
          "type": "bytes32"
        }
      ],
      "name": "requestArbitration",
      "outputs": [
        {
          "name": "",
          "type": "bool"
        }
      ],
      "payable": true,
      "stateMutability": "payable",
      "type": "function"
    },
    {
      "constant": false,
      "inputs": [
        {
          "name": "addr",
          "type": "address"
        }
      ],
      "name": "withdraw",
      "outputs": [],
      "payable": false,
      "stateMutability": "nonpayable",
      "type": "function"
    },
    {
      "constant": false,
      "inputs": [
        {
          "name": "realitycheck",
          "type": "address"
        },
        {
          "name": "question_id",
          "type": "bytes32"
        },
        {
          "name": "client_ctrct",
          "type": "address"
        },
        {
          "name": "gas",
          "type": "uint256"
        },
        {
          "name": "min_bounty",
          "type": "uint256"
        }
      ],
      "name": "sendCallback",
      "outputs": [],
      "payable": false,
      "stateMutability": "nonpayable",
      "type": "function"
    },
    {
      "constant": true,
      "inputs": [
        {
          "name": "",
          "type": "bytes32"
        }
      ],
      "name": "arbitration_bounties",
      "outputs": [
        {
          "name": "",
          "type": "uint256"
        }
      ],
      "payable": false,
      "stateMutability": "view",
      "type": "function"
    },
    {
      "constant": true,
      "inputs": [
        {
          "name": "question_id",
          "type": "bytes32"
        }
      ],
      "name": "getDisputeFee",
      "outputs": [
        {
          "name": "",
          "type": "uint256"
        }
      ],
      "payable": false,
      "stateMutability": "view",
      "type": "function"
    },
    {
      "constant": false,
      "inputs": [
        {
          "name": "realitycheck",
          "type": "address"
        },
        {
          "name": "_fee",
          "type": "uint256"
        }
      ],
      "name": "setQuestionFee",
      "outputs": [],
      "payable": false,
      "stateMutability": "nonpayable",
      "type": "function"
    },
    {
      "constant": false,
      "inputs": [
        {
          "name": "realitycheck",
          "type": "address"
        },
        {
          "name": "question_id",
          "type": "bytes32"
        },
        {
          "name": "answer",
          "type": "bytes32"
        },
        {
          "name": "answerer",
          "type": "address"
        }
      ],
      "name": "submitAnswerByArbitrator",
      "outputs": [],
      "payable": false,
      "stateMutability": "nonpayable",
      "type": "function"
    },
    {
      "inputs": [],
      "payable": false,
      "stateMutability": "nonpayable",
      "type": "constructor"
    },
    {
      "anonymous": false,
      "inputs": [
        {
          "indexed": true,
          "name": "question_id",
          "type": "bytes32"
        },
        {
          "indexed": false,
          "name": "fee_paid",
          "type": "uint256"
        },
        {
          "indexed": false,
          "name": "requester",
          "type": "address"
        },
        {
          "indexed": false,
          "name": "remaining",
          "type": "uint256"
        }
      ],
      "name": "LogRequestArbitration",
      "type": "event"
    }
  ],
  "bytecode": "0x6060604052341561000f57600080fd5b60008054600160a060020a033316600160a060020a0319909116179055662386f26fc1000060028190556003556105da8061004b6000396000f3006060604052600436106100745763ffffffff60e060020a60003504166317299c0481146100795780632609037c1461009157806351cff8d9146100bc578063605ede20146100db578063a20dd43b1461010a578063a22352e214610132578063be882d9114610148578063dce4b34e1461016a575b600080fd5b341561008457600080fd5b61008f600435610197565b005b6100a8600160a060020a03600435166024356101b7565b604051901515815260200160405180910390f35b34156100c757600080fd5b61008f600160a060020a036004351661037f565b34156100e657600080fd5b61008f600160a060020a0360043581169060243590604435166064356084356103da565b341561011557600080fd5b610120600435610473565b60405190815260200160405180910390f35b341561013d57600080fd5b610120600435610485565b341561015357600080fd5b61008f600160a060020a036004351660243561048c565b341561017557600080fd5b61008f600160a060020a03600435811690602435906044359060643516610505565b60005433600160a060020a039081169116146101b257600080fd5b600355565b60008060006101c584610485565b6000858152600160205260409020805434019081905590925090508181106102ac5784600160a060020a0316633e4e0432853360405160e060020a63ffffffff85160281526004810192909252600160a060020a03166024820152604401600060405180830381600087803b151561023c57600080fd5b6102c65a03f1151561024d57600080fd5b508591507fdf8a830581aa05b0b824a0c184007c33a1ad9100a41751c9ded9f2b4fefb16ba905034336000604051928352600160a060020a0390911660208301526040808301919091526060909101905180910390a260019250610377565b84600160a060020a0316637f8d429e8560006040516020015260405160e060020a63ffffffff84160281526004810191909152602401602060405180830381600087803b15156102fb57600080fd5b6102c65a03f1151561030c57600080fd5b505050604051805115905061032057600080fd5b837fdf8a830581aa05b0b824a0c184007c33a1ad9100a41751c9ded9f2b4fefb16ba3433848603604051928352600160a060020a0390911660208301526040808301919091526060909101905180910390a2600092505b505092915050565b60005433600160a060020a0390811691161461039a57600080fd5b80600160a060020a03166108fc30600160a060020a0316319081150290604051600060405180830381858888f1935050505015156103d757600080fd5b50565b60005433600160a060020a039081169116146103f557600080fd5b84600160a060020a031663e07422928585858560405160e060020a63ffffffff87160281526004810194909452600160a060020a03909216602484015260448301526064820152608401600060405180830381600087803b151561045857600080fd5b6102c65a03f1151561046957600080fd5b5050505050505050565b60016020526000908152604090205481565b5060035490565b60005433600160a060020a039081169116146104a757600080fd5b81600160a060020a0316634df6ca2a8260405160e060020a63ffffffff84160281526004810191909152602401600060405180830381600087803b15156104ed57600080fd5b6102c65a03f115156104fe57600080fd5b5050505050565b60005433600160a060020a0390811691161461052057600080fd5b60008381526001602052604080822091909155600160a060020a0385169063fe92049d908590859085905160e060020a63ffffffff861602815260048101939093526024830191909152600160a060020a03166044820152606401600060405180830381600087803b151561059457600080fd5b6102c65a03f115156105a557600080fd5b505050505050505600a165627a7a72305820b83b1119707f128bb894cc0e02e315ac22139483a987c6c57c916e41452f69bd0029",
  "source": "pragma solidity ^0.4.6;\n\ncontract RealityCheckAPI {\n    function setQuestionFee(uint256 fee);\n    function finalizeByArbitrator(bytes32 question_id, bytes32 answer);\n    function submitAnswerByArbitrator(bytes32 question_id, bytes32 answer, address answerer);\n    function notifyOfArbitrationRequest(bytes32 question_id, address requester);\n    function isFinalized(bytes32 question_id) returns (bool);\n}\n\ncontract CallerBackerAPI {\n    function sendCallback(bytes32 question_id, address client_ctrct, uint256 gas, uint256 min_bounty);\n}\n\ncontract Arbitrator {\n\n    address owner;\n    mapping(bytes32 => uint256) public arbitration_bounties;\n\n    uint256 question_fee;\n    uint256 dispute_fee;\n\n    event LogRequestArbitration(\n        bytes32 indexed question_id,\n        uint256 fee_paid,\n        address requester,\n        uint256 remaining\n    );\n\n    modifier onlyOwner() {\n        require(msg.sender == owner);\n        _;\n    }\n\n    function Arbitrator() {\n        owner = msg.sender;\n        question_fee = 10000000000000000; // 0.001 ETH\n        dispute_fee = 10000000000000000; // 0.001 ETH\n    }\n\n    function setDisputeFee(uint256 _fee) public onlyOwner {\n        dispute_fee = _fee;\n    }\n\n    function getDisputeFee(bytes32 question_id) constant returns (uint256) {\n        return dispute_fee;\n    }\n\n    function setQuestionFee(address realitycheck, uint256 _fee) public onlyOwner {\n        RealityCheckAPI(realitycheck).setQuestionFee(_fee);\n    }\n\n    function sendCallback(address realitycheck, bytes32 question_id, address client_ctrct, uint256 gas, uint256 min_bounty) onlyOwner {\n        CallerBackerAPI(realitycheck).sendCallback(question_id, client_ctrct, gas, min_bounty);\n    }\n\n    function submitAnswerByArbitrator(address realitycheck, bytes32 question_id, bytes32 answer, address answerer) onlyOwner {\n        delete arbitration_bounties[question_id];\n        RealityCheckAPI(realitycheck).submitAnswerByArbitrator(question_id, answer, answerer);\n    }\n\n    // Sends money to the arbitration bounty last_bond, returns true if enough was paid to trigger arbitration\n    // Will trigger an error if the notification fails, eg because the question has already been finalized\n    function requestArbitration(address realitycheck, bytes32 question_id) \n        external\n    payable returns (bool) {\n\n        uint256 arbitration_fee = getDisputeFee(question_id);\n\n        arbitration_bounties[question_id] += msg.value;\n        uint256 paid = arbitration_bounties[question_id];\n\n        if (paid >= arbitration_fee) {\n            RealityCheckAPI(realitycheck).notifyOfArbitrationRequest(question_id, msg.sender);\n            LogRequestArbitration(question_id, msg.value, msg.sender, 0);\n            return true;\n        } else {\n            require(!RealityCheckAPI(realitycheck).isFinalized(question_id));\n            LogRequestArbitration(question_id, msg.value, msg.sender, arbitration_fee - paid);\n            return false;\n        }\n\n    }\n\n    function withdraw(address addr) onlyOwner {\n        addr.transfer(this.balance); \n    }\n\n}\n",
  "sourcePath": "/var/www/html/live/truffle/contracts/Arbitrator.sol",
  "compiler": {
    "name": "solc",
    "version": "0.4.18+commit.9cf6e910.Emscripten.clang"
  },
  "schemaVersion": "1.0.1",
  "updatedAt": "2017-12-15T03:54:54.451Z"
}