{
  "contractName": "RealityCheck",
  "abi": [
    {
      "constant": false,
      "inputs": [
        {
          "name": "question_id",
          "type": "bytes32"
        },
        {
          "name": "history_hashes",
          "type": "bytes32[]"
        },
        {
          "name": "addrs",
          "type": "address[]"
        },
        {
          "name": "bonds",
          "type": "uint256[]"
        },
        {
          "name": "answers",
          "type": "bytes32[]"
        }
      ],
      "name": "claimWinnings",
      "outputs": [],
      "payable": false,
      "stateMutability": "nonpayable",
      "type": "function"
    },
    {
      "constant": true,
      "inputs": [
        {
          "name": "question_id",
          "type": "bytes32"
        },
        {
          "name": "content_hash",
          "type": "bytes32"
        },
        {
          "name": "arbitrator",
          "type": "address"
        },
        {
          "name": "min_timeout",
          "type": "uint32"
        },
        {
          "name": "min_bond",
          "type": "uint256"
        }
      ],
      "name": "getFinalAnswerIfMatches",
      "outputs": [
        {
          "name": "",
          "type": "bytes32"
        }
      ],
      "payable": false,
      "stateMutability": "view",
      "type": "function"
    },
    {
      "constant": false,
      "inputs": [
        {
          "name": "question_ids",
          "type": "bytes32[]"
        },
        {
          "name": "lengths",
          "type": "uint256[]"
        },
        {
          "name": "hist_hashes",
          "type": "bytes32[]"
        },
        {
          "name": "addrs",
          "type": "address[]"
        },
        {
          "name": "bonds",
          "type": "uint256[]"
        },
        {
          "name": "answers",
          "type": "bytes32[]"
        }
      ],
      "name": "claimMultipleAndWithdrawBalance",
      "outputs": [],
      "payable": false,
      "stateMutability": "nonpayable",
      "type": "function"
    },
    {
      "constant": false,
      "inputs": [],
      "name": "withdraw",
      "outputs": [],
      "payable": false,
      "stateMutability": "nonpayable",
      "type": "function"
    },
    {
      "constant": false,
      "inputs": [
        {
          "name": "question_id",
          "type": "bytes32"
        },
        {
          "name": "requester",
          "type": "address"
        }
      ],
      "name": "notifyOfArbitrationRequest",
      "outputs": [],
      "payable": false,
      "stateMutability": "nonpayable",
      "type": "function"
    },
    {
      "constant": false,
      "inputs": [
        {
          "name": "question_id",
          "type": "bytes32"
        },
        {
          "name": "answer",
          "type": "bytes32"
        },
        {
          "name": "nonce",
          "type": "uint256"
        },
        {
          "name": "bond",
          "type": "uint256"
        }
      ],
      "name": "submitAnswerReveal",
      "outputs": [],
      "payable": false,
      "stateMutability": "nonpayable",
      "type": "function"
    },
    {
      "constant": false,
      "inputs": [
        {
          "name": "fee",
          "type": "uint256"
        }
      ],
      "name": "setQuestionFee",
      "outputs": [],
      "payable": false,
      "stateMutability": "nonpayable",
      "type": "function"
    },
    {
      "constant": false,
      "inputs": [
        {
          "name": "question_id",
          "type": "bytes32"
        }
      ],
      "name": "fundAnswerBounty",
      "outputs": [],
      "payable": true,
      "stateMutability": "payable",
      "type": "function"
    },
    {
      "constant": true,
      "inputs": [
        {
          "name": "",
          "type": "address"
        }
      ],
      "name": "arbitrator_question_fees",
      "outputs": [
        {
          "name": "",
          "type": "uint256"
        }
      ],
      "payable": false,
      "stateMutability": "view",
      "type": "function"
    },
    {
      "constant": true,
      "inputs": [
        {
          "name": "",
          "type": "address"
        }
      ],
      "name": "balanceOf",
      "outputs": [
        {
          "name": "",
          "type": "uint256"
        }
      ],
      "payable": false,
      "stateMutability": "view",
      "type": "function"
    },
    {
      "constant": false,
      "inputs": [
        {
          "name": "template_id",
          "type": "uint256"
        },
        {
          "name": "question",
          "type": "string"
        },
        {
          "name": "arbitrator",
          "type": "address"
        },
        {
          "name": "timeout",
          "type": "uint32"
        },
        {
          "name": "opening_ts",
          "type": "uint32"
        },
        {
          "name": "nonce",
          "type": "uint256"
        }
      ],
      "name": "askQuestion",
      "outputs": [
        {
          "name": "",
          "type": "bytes32"
        }
      ],
      "payable": true,
      "stateMutability": "payable",
      "type": "function"
    },
    {
      "constant": false,
      "inputs": [
        {
          "name": "question_id",
          "type": "bytes32"
        },
        {
          "name": "answer",
          "type": "bytes32"
        },
        {
          "name": "max_previous",
          "type": "uint256"
        }
      ],
      "name": "submitAnswer",
      "outputs": [],
      "payable": true,
      "stateMutability": "payable",
      "type": "function"
    },
    {
      "constant": true,
      "inputs": [
        {
          "name": "question_id",
          "type": "bytes32"
        }
      ],
      "name": "isFinalized",
      "outputs": [
        {
          "name": "",
          "type": "bool"
        }
      ],
      "payable": false,
      "stateMutability": "view",
      "type": "function"
    },
    {
      "constant": true,
      "inputs": [
        {
          "name": "",
          "type": "bytes32"
        }
      ],
      "name": "commitments",
      "outputs": [
        {
          "name": "reveal_ts",
          "type": "uint32"
        },
        {
          "name": "is_revealed",
          "type": "bool"
        },
        {
          "name": "revealed_answer",
          "type": "bytes32"
        }
      ],
      "payable": false,
      "stateMutability": "view",
      "type": "function"
    },
    {
      "constant": false,
      "inputs": [
        {
          "name": "content",
          "type": "string"
        }
      ],
      "name": "createTemplate",
      "outputs": [
        {
          "name": "",
          "type": "uint256"
        }
      ],
      "payable": false,
      "stateMutability": "nonpayable",
      "type": "function"
    },
    {
      "constant": true,
      "inputs": [
        {
          "name": "",
          "type": "bytes32"
        }
      ],
      "name": "questions",
      "outputs": [
        {
          "name": "content_hash",
          "type": "bytes32"
        },
        {
          "name": "arbitrator",
          "type": "address"
        },
        {
          "name": "opening_ts",
          "type": "uint32"
        },
        {
          "name": "timeout",
          "type": "uint32"
        },
        {
          "name": "finalize_ts",
          "type": "uint32"
        },
        {
          "name": "is_pending_arbitration",
          "type": "bool"
        },
        {
          "name": "bounty",
          "type": "uint256"
        },
        {
          "name": "best_answer",
          "type": "bytes32"
        },
        {
          "name": "history_hash",
          "type": "bytes32"
        },
        {
          "name": "bond",
          "type": "uint256"
        }
      ],
      "payable": false,
      "stateMutability": "view",
      "type": "function"
    },
    {
      "constant": false,
      "inputs": [
        {
          "name": "content",
          "type": "string"
        },
        {
          "name": "question",
          "type": "string"
        },
        {
          "name": "arbitrator",
          "type": "address"
        },
        {
          "name": "timeout",
          "type": "uint32"
        },
        {
          "name": "opening_ts",
          "type": "uint32"
        },
        {
          "name": "nonce",
          "type": "uint256"
        }
      ],
      "name": "createTemplateAndAskQuestion",
      "outputs": [
        {
          "name": "",
          "type": "bytes32"
        }
      ],
      "payable": true,
      "stateMutability": "payable",
      "type": "function"
    },
    {
      "constant": true,
      "inputs": [
        {
          "name": "question_id",
          "type": "bytes32"
        }
      ],
      "name": "getFinalAnswer",
      "outputs": [
        {
          "name": "",
          "type": "bytes32"
        }
      ],
      "payable": false,
      "stateMutability": "view",
      "type": "function"
    },
    {
      "constant": true,
      "inputs": [
        {
          "name": "",
          "type": "uint256"
        }
      ],
      "name": "templates",
      "outputs": [
        {
          "name": "",
          "type": "uint256"
        }
      ],
      "payable": false,
      "stateMutability": "view",
      "type": "function"
    },
    {
      "constant": false,
      "inputs": [
        {
          "name": "question_id",
          "type": "bytes32"
        },
        {
          "name": "answer_hash",
          "type": "bytes32"
        },
        {
          "name": "max_previous",
          "type": "uint256"
        },
        {
          "name": "_answerer",
          "type": "address"
        }
      ],
      "name": "submitAnswerCommitment",
      "outputs": [],
      "payable": true,
      "stateMutability": "payable",
      "type": "function"
    },
    {
      "constant": false,
      "inputs": [
        {
          "name": "question_id",
          "type": "bytes32"
        },
        {
          "name": "answer",
          "type": "bytes32"
        },
        {
          "name": "answerer",
          "type": "address"
        }
      ],
      "name": "submitAnswerByArbitrator",
      "outputs": [],
      "payable": false,
      "stateMutability": "nonpayable",
      "type": "function"
    },
    {
      "inputs": [],
      "payable": false,
      "stateMutability": "nonpayable",
      "type": "constructor"
    },
    {
      "anonymous": false,
      "inputs": [
        {
          "indexed": false,
          "name": "arbitrator",
          "type": "address"
        },
        {
          "indexed": false,
          "name": "amount",
          "type": "uint256"
        }
      ],
      "name": "LogSetQuestionFee",
      "type": "event"
    },
    {
      "anonymous": false,
      "inputs": [
        {
          "indexed": true,
          "name": "template_id",
          "type": "uint256"
        },
        {
          "indexed": true,
          "name": "user",
          "type": "address"
        },
        {
          "indexed": false,
          "name": "question_text",
          "type": "string"
        }
      ],
      "name": "LogNewTemplate",
      "type": "event"
    },
    {
      "anonymous": false,
      "inputs": [
        {
          "indexed": true,
          "name": "question_id",
          "type": "bytes32"
        },
        {
          "indexed": true,
          "name": "user",
          "type": "address"
        },
        {
          "indexed": false,
          "name": "template_id",
          "type": "uint256"
        },
        {
          "indexed": false,
          "name": "question",
          "type": "string"
        },
        {
          "indexed": true,
          "name": "content_hash",
          "type": "bytes32"
        },
        {
          "indexed": false,
          "name": "arbitrator",
          "type": "address"
        },
        {
          "indexed": false,
          "name": "timeout",
          "type": "uint32"
        },
        {
          "indexed": false,
          "name": "opening_ts",
          "type": "uint32"
        },
        {
          "indexed": false,
          "name": "nonce",
          "type": "uint256"
        },
        {
          "indexed": false,
          "name": "created",
          "type": "uint256"
        }
      ],
      "name": "LogNewQuestion",
      "type": "event"
    },
    {
      "anonymous": false,
      "inputs": [
        {
          "indexed": true,
          "name": "question_id",
          "type": "bytes32"
        },
        {
          "indexed": false,
          "name": "bounty_added",
          "type": "uint256"
        },
        {
          "indexed": false,
          "name": "bounty",
          "type": "uint256"
        },
        {
          "indexed": true,
          "name": "user",
          "type": "address"
        }
      ],
      "name": "LogFundAnswerBounty",
      "type": "event"
    },
    {
      "anonymous": false,
      "inputs": [
        {
          "indexed": false,
          "name": "answer",
          "type": "bytes32"
        },
        {
          "indexed": true,
          "name": "question_id",
          "type": "bytes32"
        },
        {
          "indexed": false,
          "name": "history_hash",
          "type": "bytes32"
        },
        {
          "indexed": true,
          "name": "user",
          "type": "address"
        },
        {
          "indexed": false,
          "name": "bond",
          "type": "uint256"
        },
        {
          "indexed": false,
          "name": "ts",
          "type": "uint256"
        },
        {
          "indexed": false,
          "name": "is_commitment",
          "type": "bool"
        }
      ],
      "name": "LogNewAnswer",
      "type": "event"
    },
    {
      "anonymous": false,
      "inputs": [
        {
          "indexed": true,
          "name": "question_id",
          "type": "bytes32"
        },
        {
          "indexed": true,
          "name": "user",
          "type": "address"
        },
        {
          "indexed": true,
          "name": "answer_hash",
          "type": "bytes32"
        },
        {
          "indexed": false,
          "name": "answer",
          "type": "bytes32"
        },
        {
          "indexed": false,
          "name": "nonce",
          "type": "uint256"
        },
        {
          "indexed": false,
          "name": "bond",
          "type": "uint256"
        }
      ],
      "name": "LogAnswerReveal",
      "type": "event"
    },
    {
      "anonymous": false,
      "inputs": [
        {
          "indexed": true,
          "name": "question_id",
          "type": "bytes32"
        },
        {
          "indexed": true,
          "name": "user",
          "type": "address"
        }
      ],
      "name": "LogNotifyOfArbitrationRequest",
      "type": "event"
    },
    {
      "anonymous": false,
      "inputs": [
        {
          "indexed": true,
          "name": "question_id",
          "type": "bytes32"
        },
        {
          "indexed": true,
          "name": "answer",
          "type": "bytes32"
        }
      ],
      "name": "LogFinalize",
      "type": "event"
    },
    {
      "anonymous": false,
      "inputs": [
        {
          "indexed": true,
          "name": "question_id",
          "type": "bytes32"
        },
        {
          "indexed": true,
          "name": "user",
          "type": "address"
        },
        {
          "indexed": false,
          "name": "amount",
          "type": "uint256"
        }
      ],
      "name": "LogClaim",
      "type": "event"
    },
    {
      "anonymous": false,
      "inputs": [
        {
          "indexed": true,
          "name": "user",
          "type": "address"
        },
        {
          "indexed": false,
          "name": "amount",
          "type": "uint256"
        }
      ],
      "name": "LogWithdraw",
      "type": "event"
    }
  ],
  "bytecode": "0x6060604052600060015534156200001557600080fd5b6200008960606040519081016040908152603182527f7b227469746c65223a20222573222c202274797065223a2022626f6f6c222c2060208301527f2263617465676f7279223a20222573227d000000000000000000000000000000908201526401000000006200168b6200034a82021704565b506200012460806040519081016040908152604182527f7b227469746c65223a20222573222c202274797065223a202275696e74222c2060208301527f22646563696d616c73223a2031382c202263617465676f7279223a2022257322908201527f7d0000000000000000000000000000000000000000000000000000000000000060608201526401000000006200168b6200034a82021704565b5062000198606060405190810160409081528082527f7b227469746c65223a20222573222c202274797065223a2022696e74222c202260208301527f646563696d616c73223a2031382c202263617465676f7279223a20222573227d908201526401000000006200168b6200034a82021704565b506200023360806040519081016040908152604c82527f7b227469746c65223a20222573222c202274797065223a202273696e676c652d60208301527f73656c656374222c20226f7574636f6d6573223a205b25735d2c202263617465908201527f676f7279223a20222573227d000000000000000000000000000000000000000060608201526401000000006200168b6200034a82021704565b50620002ce60806040519081016040908152604e82527f7b227469746c65223a20222573222c202274797065223a20226d756c7469706c60208301527f652d73656c656374222c20226f7574636f6d6573223a205b25735d2c20226361908201527f7465676f7279223a20222573227d00000000000000000000000000000000000060608201526401000000006200168b6200034a82021704565b506200034360606040519081016040908152603582527f7b227469746c65223a20222573222c202274797065223a20226461746574696d60208301527f65222c202263617465676f7279223a20222573227d0000000000000000000000908201526401000000006200168b6200034a82021704565b5062000445565b600154600081815260026020526040808220439055909190600160a060020a0333169082907fb87fb721c0a557bb8dff89a86796466931d82ba530a66a239263eb8735ade2e49086905160208082528190810183818151815260200191508051906020019080838360005b83811015620003cf578082015183820152602001620003b5565b50505050905090810190601f168015620003fd5780820380516001836020036101000a031916815260200191505b509250505060405180910390a36200042581600164010000000062001bff6200042e82021704565b60015592915050565b6000828201838110156200043e57fe5b9392505050565b61217980620004556000396000f3006060604052600436106101035763ffffffff60e060020a6000350416631101a0fd811461010857806312a203c31461021e57806328828b1e146102615780633ccfd60b146103f05780633e4e0432146104035780634dc266b4146104255780634df6ca2a1461044457806359245ff31461045a5780636fa427421461046557806370a0823114610484578063762c38fd146104a357806377f325df146105125780637f8d429e14610523578063839df9451461054d57806383bf46091461058e57806395addb90146105df578063a1130d0414610662578063a462fb7b1461070e578063bc52565214610724578063d7cff9861461073a578063fe92049d14610757575b600080fd5b341561011357600080fd5b61021c6004803590604460248035908101908301358060208181020160405190810160405280939291908181526020018383602002808284378201915050505050509190803590602001908201803590602001908080602002602001604051908101604052809392919081815260200183836020028082843782019150505050505091908035906020019082018035906020019080806020026020016040519081016040528093929190818152602001838360200280828437820191505050505050919080359060200190820180359060200190808060200260200160405190810160405280939291908181526020018383602002808284375094965061077c95505050505050565b005b341561022957600080fd5b61024f600435602435600160a060020a036044351663ffffffff606435166084356109db565b60405190815260200160405180910390f35b341561026c57600080fd5b61021c60046024813581810190830135806020818102016040519081016040528093929190818152602001838360200280828437820191505050505050919080359060200190820180359060200190808060200260200160405190810160405280939291908181526020018383602002808284378201915050505050509190803590602001908201803590602001908080602002602001604051908101604052809392919081815260200183836020028082843782019150505050505091908035906020019082018035906020019080806020026020016040519081016040528093929190818152602001838360200280828437820191505050505050919080359060200190820180359060200190808060200260200160405190810160405280939291908181526020018383602002808284378201915050505050509190803590602001908201803590602001908080602002602001604051908101604052809392919081815260200183836020028082843750949650610a9d95505050505050565b34156103fb57600080fd5b61021c610c8d565b341561040e57600080fd5b61021c600435600160a060020a0360243516610d15565b341561043057600080fd5b61021c600435602435604435606435610e76565b341561044f57600080fd5b61021c6004356110a6565b61021c60043561110b565b341561047057600080fd5b61024f600160a060020a0360043516611267565b341561048f57600080fd5b61024f600160a060020a0360043516611279565b61024f600480359060446024803590810190830135806020601f8201819004810201604051908101604052818152929190602084018383808284375094965050600160a060020a038535169463ffffffff602082013581169550604082013516935060600135915061128b9050565b61021c60043560243560443561147e565b341561052e57600080fd5b610539600435611601565b604051901515815260200160405180910390f35b341561055857600080fd5b61056360043561165e565b60405163ffffffff909316835290151560208301526040808301919091526060909101905180910390f35b341561059957600080fd5b61024f60046024813581810190830135806020601f8201819004810201604051908101604052818152929190602084018383808284375094965061168b95505050505050565b34156105ea57600080fd5b6105f5600435611762565b604051998a52600160a060020a0390981660208a015263ffffffff9687166040808b019190915295871660608a015293909516608088015290151560a087015260c086015260e0850192909252610100840191909152610120830191909152610140909101905180910390f35b61024f60046024813581810190830135806020601f8201819004810201604051908101604052818152929190602084018383808284378201915050505050509190803590602001908201803590602001908080601f01602080910402602001604051908101604052818152929190602084018383808284375094965050600160a060020a038535169463ffffffff60208201358116955060408201351693506060013591506117cf9050565b341561071957600080fd5b61024f6004356117f7565b341561072f57600080fd5b61024f600435611825565b61021c600435602435604435600160a060020a0360643516611837565b341561076257600080fd5b61021c600435602435600160a060020a0360443516611a58565b60008060008060008060008b61079181611601565b151561079c57600080fd5b60008c51116107aa57600080fd5b60008d81526004602081815260408084208054600182015460029092015460039094529185206005810154940154600160a060020a039092169c509a50909850909650945092505b8b518310156108fe5761085c858d858151811061080b57fe5b906020019060200201518b868151811061082157fe5b906020019060200201518d878151811061083757fe5b906020019060200201518f888151811061084d57fe5b90602001906020020151611b30565b915061086e868863ffffffff611bff16565b95506108bf8d85888b8f888151811061088357fe5b906020019060200201518f898151811061089957fe5b906020019060200201518f8a815181106108af57fe5b9060200190602002015189611c19565b985095508983815181106108cf57fe5b9060200190602002015196508b83815181106108e757fe5b9060200190602002015194506001909201916107f2565b841561096957600160a060020a038816156109235761091e8d8988611d4a565b600095505b60008d8152600460205260409020805473ffffffffffffffffffffffffffffffffffffffff1916600160a060020a038a16178155600181018890556002018690556109b8565b6109838d8961097e898b63ffffffff611bff16565b611d4a565b60008d8152600460205260408120805473ffffffffffffffffffffffffffffffffffffffff1916815560018101829055600201555b5050506000998a5250600360205260409098206005019790975550505050505050565b6000856109e781611601565b15156109f257600080fd5b6000878152600360205260409020548614610a0c57600080fd5b600087815260036020526040902060010154600160a060020a03868116911614610a3557600080fd5b60008781526003602052604090206001015463ffffffff60c060020a90910481169085161115610a6457600080fd5b600087815260036020526040902060060154831115610a8257600080fd5b50505060009384525050600360205250604090206004015490565b600080600080610aab61213b565b610ab361213b565b610abb61213b565b610ac361213b565b60008098505b8e51891015610c74578e8981518110610ade57fe5b9060200190602002015196508d8981518110610af657fe5b90602001906020020151955085604051805910610b105750595b9080825280602002602001820160405250945085604051805910610b315750595b9080825280602002602001820160405250935085604051805910610b525750595b9080825280602002602001820160405250925085604051805910610b735750595b90808252806020026020018201604052509150600090505b85811015610c5c578c8881518110610b9f57fe5b90602001906020020151858281518110610bb557fe5b602090810290910101528b8881518110610bcb57fe5b90602001906020020151848281518110610be157fe5b600160a060020a039092166020928302909101909101528a8881518110610c0457fe5b90602001906020020151838281518110610c1a57fe5b60209081029091010152898881518110610c3057fe5b90602001906020020151828281518110610c4657fe5b6020908102909101015260019788019701610b8b565b610c69878686868661077c565b600190980197610ac9565b610c7c610c8d565b505050505050505050505050505050565b600160a060020a033316600081815260208190526040808220805492905590919082156108fc0290839051600060405180830381858888f193505050501515610cd557600080fd5b33600160a060020a03167f4ce7033d118120e254016dccf195288400b28fc8936425acd5f17ce2df3ab7088260405190815260200160405180910390a250565b600082815260036020526040902060010154829033600160a060020a03908116911614610d4157600080fd5b600083815260036020526040812060010154849190819060c060020a900463ffffffff16819011610d7157600080fd5b60008381526003602052604090206002015460ff1615610d9057600080fd5b60008381526003602052604090206001015460e060020a900463ffffffff169150811580610dc957504263ffffffff168263ffffffff16115b1515610dd457600080fd5b5060008281526003602052604090206001015460a060020a900463ffffffff16801580610e0d57504263ffffffff168163ffffffff1611155b1515610e1857600080fd5b60008681526003602052604090819020600201805460ff19166001179055600160a060020a0386169087907f75d7939999bc902187c4aed400872883e445145f1983539166f783fa040b4762905160405180910390a3505050505050565b600084815260036020526040812060010154819086908290819060c060020a900463ffffffff16819011610ea957600080fd5b60008381526003602052604090206002015460ff1615610ec857600080fd5b60008381526003602052604090206001015460e060020a900463ffffffff169150811580610f0157504263ffffffff168263ffffffff16115b1515610f0c57600080fd5b5060008281526003602052604090206001015460a060020a900463ffffffff16801580610f4557504263ffffffff168163ffffffff1611155b1515610f5057600080fd5b878760405191825260208201526040908101905180910390209450888587604051928352602083019190915260408083019190915260609091019051908190039020600081815260056020526040902054909450640100000000900460ff1615610fb957600080fd5b60008481526005602052604090205463ffffffff428116911611610fdc57600080fd5b6000848152600560209081526040808320600181018c9055805464ff0000000019166401000000001790558b8352600390915290206006015486141561104857600089815260036020526040902060010154611048908a908a9060c060020a900463ffffffff16611dcc565b84600160a060020a0333168a7fa7b2d313bc7a062e30b2c3b811aa4c9faf09755a6b4ea3bf42deff920944332f8b8b8b60405192835260208301919091526040808301919091526060909101905180910390a4505050505050505050565b33600160a060020a038116600090815260066020526040908190208390557fdca703d022171824d3d639b33c1525fd2338120b4cfb89507c0b59596893acda9190839051600160a060020a03909216825260208201526040908101905180910390a150565b600081815260036020526040812060010154829190819060c060020a900463ffffffff1681901161113b57600080fd5b60008381526003602052604090206002015460ff161561115a57600080fd5b60008381526003602052604090206001015460e060020a900463ffffffff16915081158061119357504263ffffffff168263ffffffff16115b151561119e57600080fd5b5060008281526003602052604090206001015460a060020a900463ffffffff168015806111d757504263ffffffff168163ffffffff1611155b15156111e257600080fd5b60008481526003602081905260409091200154611205903463ffffffff611bff16565b60008581526003602081905260409182902001829055600160a060020a0333169186917f54d68405b79f2aa4fd4e8db7b67844ad254cf8f208aac476c2894134a9deab669134915191825260208201526040908101905180910390a350505050565b60066020526000908152604090205481565b60006020819052908152604090205481565b600086815260026020526040812054819081908190116112aa57600080fd5b88858960405183815260e060020a63ffffffff84160260208201526024810182805190602001908083835b602083106112f45780518252601f1990920191602091820191016112d5565b6001836020036101000a03801982511681845116179092525050509190910194506040935050505051809103902091508187873387604051948552600160a060020a039384166c01000000000000000000000000908102602087015263ffffffff9390931660e060020a0260348601529216026038830152604c820152606c016040518091039020905061138b8183898989611e42565b81600160a060020a033316827ffe2dac156a3890636ce13f65f4fdf41dcaee11526e4a5374531572d92194796c8c8c8c8c8c8c42604051878152600160a060020a038616604082015263ffffffff80861660608301528416608082015260a0810183905260c0810182905260e06020820181815290820188818151815260200191508051906020019080838360005b8381101561143257808201518382015260200161141a565b50505050905090810190601f16801561145f5780820380516001836020036101000a031916815260200191505b509850505050505050505060405180910390a498975050505050505050565b600083815260036020526040812060010154849190819060c060020a900463ffffffff168190116114ae57600080fd5b60008381526003602052604090206002015460ff16156114cd57600080fd5b60008381526003602052604090206001015460e060020a900463ffffffff16915081158061150657504263ffffffff168263ffffffff16115b151561151157600080fd5b5060008281526003602052604090206001015460a060020a900463ffffffff1680158061154a57504263ffffffff168163ffffffff1611155b151561155557600080fd5b856000341161156357600080fd5b60008181526003602052604090206006015461158690600263ffffffff611fee16565b34101561159257600080fd5b868560008111156115bc57600082815260036020526040902060060154819011156115bc57600080fd5b6115ca898933346000612019565b6000898152600360205260409020600101546115f6908a908a9060c060020a900463ffffffff16611dcc565b505050505050505050565b6000818152600360205260408120600181015460029091015460e060020a90910463ffffffff169060ff1615801561163f5750600063ffffffff8216115b801561165757504263ffffffff168163ffffffff1611155b9392505050565b6005602052600090815260409020805460019091015463ffffffff821691640100000000900460ff169083565b600154600081815260026020526040808220439055909190600160a060020a0333169082907fb87fb721c0a557bb8dff89a86796466931d82ba530a66a239263eb8735ade2e49086905160208082528190810183818151815260200191508051906020019080838360005b8381101561170e5780820151838201526020016116f6565b50505050905090810190601f16801561173b5780820380516001836020036101000a031916815260200191505b509250505060405180910390a361175981600163ffffffff611bff16565b60015592915050565b600360208190526000918252604090912080546001820154600283015493830154600484015460058501546006909501549395600160a060020a0384169563ffffffff60a060020a860481169660c060020a870482169660e060020a90049091169460ff9093169391908a565b6000806117db8861168b565b90506117eb81888888888861128b565b98975050505050505050565b60008161180381611601565b151561180e57600080fd5b505060009081526003602052604090206004015490565b60026020526000908152604090205481565b6000848152600360205260408120600101548190819087908290819060c060020a900463ffffffff1681901161186c57600080fd5b60008381526003602052604090206002015460ff161561188b57600080fd5b60008381526003602052604090206001015460e060020a900463ffffffff1691508115806118c457504263ffffffff168263ffffffff16115b15156118cf57600080fd5b5060008281526003602052604090206001015460a060020a900463ffffffff1680158061190857504263ffffffff168163ffffffff1611155b151561191357600080fd5b896000341161192157600080fd5b60008181526003602052604090206006015461194490600263ffffffff611fee16565b34101561195057600080fd5b8a89600081111561197a576000828152600360205260409020600601548190111561197a57600080fd5b8c8c346040519283526020830191909152604080830191909152606090910190519081900390209850600160a060020a038a16156119b857896119ba565b335b60008a81526005602052604090205490985063ffffffff16156119dc57600080fd5b60008d81526003602052604090206001015460089060c060020a900463ffffffff16049650611a1563ffffffff42811690899061211116565b60008a8152600560205260409020805463ffffffff191663ffffffff92909216919091179055611a498d8a8a346001612019565b50505050505050505050505050565b600083815260036020526040902060010154839033600160a060020a03908116911614611a8457600080fd5b600084815260036020526040902060020154849060ff161515611aa657600080fd5b3415611ab157600080fd5b600160a060020a0383161515611ac657600080fd5b83857f18d760beffe3717270cd90d9d920ec1a48c194e9ad7bba23eb1c92d3eb974f9760405160405180910390a36000858152600360205260408120600201805460ff19169055611b1d9086908690869080612019565b611b2985856000611dcc565b5050505050565b60008484848460016040519485526020850193909352604080850192909252600160a060020a03166c0100000000000000000000000002606084015290151560f860020a02607483015260759091019051908190039020861415611b9657506001611bf6565b8484848460006040519485526020850193909352604080850192909252600160a060020a03166c0100000000000000000000000002606084015290151560f860020a02607483015260759091019051908190039020861415610103575060005b95945050505050565b600082820183811015611c0e57fe5b8091505b5092915050565b6000806000808415611c9957600086815260056020526040902054869250640100000000900460ff161515611c71576000828152600560205260408120805464ffffffffff1916815560010155899350889250611d3b565b6000828152600560205260408120600181018054825464ffffffffff19169092559190915595505b858b1415611d3457600160a060020a0389161515611cf35760008c815260036020819052604090912001549798508897611cda908b9063ffffffff611bff16565b60008d8152600360208190526040822001559950611d34565b600160a060020a03888116908a1614611d3457868a1015611d145789611d16565b865b9050611d2d8c8a61097e8d8563ffffffff61212916565b8798508099505b8989935093505b50509850989650505050505050565b600160a060020a038216600090815260208190526040902054611d73908263ffffffff611bff16565b600160a060020a03831660008181526020819052604090819020929092559084907f9c121aff33b50c1a53fef034ebec5f83da2d5a5187048f9c76c397ba27c1a1a69084905190815260200160405180910390a3505050565b6000838152600360205260409020600401829055611df463ffffffff42811690839061211116565b600093845260036020526040909320600101805463ffffffff9490941660e060020a027bffffffffffffffffffffffffffffffffffffffffffffffffffffffff909416939093179092555050565b6000858152600360205260408120600101548190879060c060020a900463ffffffff1615611e6f57600080fd5b600063ffffffff861611611e8257600080fd5b6301e1338063ffffffff861610611e9857600080fd5b600160a060020a0386161515611ead57600080fd5b34925085600160a060020a031633600160a060020a0316141515611f4957600160a060020a038616600090815260066020526040902054915081831015611ef357600080fd5b611f03838363ffffffff61212916565b600160a060020a038716600090815260208190526040902054909350611f2f908363ffffffff611bff16565b600160a060020a0387166000908152602081905260409020555b5050600095865260036020819052604090962094855560018501805473ffffffffffffffffffffffffffffffffffffffff1916600160a060020a03959095169490941777ffffffff0000000000000000000000000000000000000000191660a060020a63ffffffff93841602177fffffffff00000000ffffffffffffffffffffffffffffffffffffffffffffffff1660c060020a939092169290920217909155910155565b6000808315156120015760009150611c12565b5082820282848281151561201157fe5b0414611c0e57fe5b60008581526003602052604080822060050154908690859087908690519485526020850193909352604080850192909252600160a060020a03166c0100000000000000000000000002606084015290151560f860020a026074830152607590910190519081900390206000878152600360205260409081902060068101869055600501829055909150600160a060020a0385169087907fe47ca4ebbbc2990134d1168821f38c5e177f3d5ee564bffeadeaa351905e622190889085908890429089905194855260208501939093526040808501929092526060840152901515608083015260a0909101905180910390a3505050505050565b600082820163ffffffff8085169082161015611c0e57fe5b60008282111561213557fe5b50900390565b602060405190810160405260008152905600a165627a7a72305820f47513d0d37c81cd667ba81ce54a70e717963d3213c72d902d98088c96e637210029",
  "source": "pragma solidity 0.4.18;\n\nimport './SafeMath.sol';\nimport './SafeMath32.sol';\nimport './BalanceHolder.sol';\n\n\ncontract RealityCheck is BalanceHolder {\n\n    using SafeMath for uint256;\n    using SafeMath32 for uint32;\n\n    address constant NULL_ADDRESS = address(0);\n\n    // History hash when no history is created, or history has been cleared\n    bytes32 constant NULL_HASH = bytes32(0);\n\n    // An unitinalized finalize_ts for a question will indicate an unanswered question.\n    uint32 constant UNANSWERED = 0;\n\n    // An unanswered reveal_ts for a commitment will indicate that it does not exist.\n    uint256 constant COMMITMENT_NON_EXISTENT = 0;\n\n    // Commit->reveal timeout is 1/8 of the question timeout (rounded down).\n    uint32 constant COMMITMENT_TIMEOUT_RATIO = 8;\n\n    event LogSetQuestionFee(\n        address arbitrator,\n        uint256 amount\n    );\n\n    event LogNewTemplate(\n        uint256 indexed template_id,\n        address indexed user, \n        string question_text\n    );\n\n    event LogNewQuestion(\n        bytes32 indexed question_id,\n        address indexed user, \n        uint256 template_id,\n        string question,\n        bytes32 indexed content_hash,\n        address arbitrator, \n        uint32 timeout,\n        uint32 opening_ts,\n        uint256 nonce,\n        uint256 created\n    );\n\n    event LogFundAnswerBounty(\n        bytes32 indexed question_id,\n        uint256 bounty_added,\n        uint256 bounty,\n        address indexed user \n    );\n\n    event LogNewAnswer(\n        bytes32 answer,\n        bytes32 indexed question_id,\n        bytes32 history_hash,\n        address indexed user,\n        uint256 bond,\n        uint256 ts,\n        bool is_commitment\n    );\n\n    event LogAnswerReveal(\n        bytes32 indexed question_id, \n        address indexed user, \n        bytes32 indexed answer_hash, \n        bytes32 answer, \n        uint256 nonce, \n        uint256 bond\n    );\n\n    event LogNotifyOfArbitrationRequest(\n        bytes32 indexed question_id,\n        address indexed user \n    );\n\n    event LogFinalize(\n        bytes32 indexed question_id,\n        bytes32 indexed answer\n    );\n\n    event LogClaim(\n        bytes32 indexed question_id,\n        address indexed user,\n        uint256 amount\n    );\n\n    struct Question {\n        bytes32 content_hash;\n        address arbitrator;\n        uint32 opening_ts;\n        uint32 timeout;\n        uint32 finalize_ts;\n        bool is_pending_arbitration;\n        uint256 bounty;\n        bytes32 best_answer;\n        bytes32 history_hash;\n        uint256 bond;\n    }\n\n    // Stored in a mapping indexed by commitment_id, a hash of commitment hash, question, bond. \n    struct Commitment {\n        uint32 reveal_ts;\n        bool is_revealed;\n        bytes32 revealed_answer;\n    }\n\n    // Only used when claiming more bonds than fits into a transaction\n    // Stored in a mapping indexed by question_id.\n    struct Claim {\n        address payee;\n        uint256 last_bond;\n        uint256 queued_funds;\n    }\n\n    uint256 nextTemplateID = 0;\n    mapping(uint256 => uint256) public templates;\n    mapping(bytes32 => Question) public questions;\n    mapping(bytes32 => Claim) question_claims;\n    mapping(bytes32 => Commitment) public commitments;\n    mapping(address => uint256) public arbitrator_question_fees; \n\n    modifier onlyArbitrator(bytes32 question_id) {\n        require(msg.sender == questions[question_id].arbitrator);\n        _;\n    }\n\n    modifier stateAny() {\n        _;\n    }\n\n    modifier stateNotCreated(bytes32 question_id) {\n        require(questions[question_id].timeout == 0);\n        _;\n    }\n\n    modifier stateOpen(bytes32 question_id) {\n        require(questions[question_id].timeout > 0); // Check existence\n        require(!questions[question_id].is_pending_arbitration);\n        uint32 finalize_ts = questions[question_id].finalize_ts;\n        require(finalize_ts == UNANSWERED || finalize_ts > uint32(now));\n        uint32 opening_ts = questions[question_id].opening_ts;\n        require(opening_ts == 0 || opening_ts <= uint32(now)); \n        _;\n    }\n\n    modifier statePendingArbitration(bytes32 question_id) {\n        require(questions[question_id].is_pending_arbitration);\n        _;\n    }\n\n    modifier stateFinalized(bytes32 question_id) {\n        require(isFinalized(question_id));\n        _;\n    }\n\n    modifier bondMustBeZero() {\n        require(msg.value == 0);\n        _;\n    }\n\n    modifier bondMustDouble(bytes32 question_id) {\n        require(msg.value > 0); \n        require(msg.value >= (questions[question_id].bond.mul(2)));\n        _;\n    }\n\n    modifier previousBondMustNotBeatMaxPrevious(bytes32 question_id, uint256 max_previous) {\n        if (max_previous > 0) {\n            require(questions[question_id].bond <= max_previous);\n        }\n        _;\n    }\n\n    /// @notice Constructor, sets up some initial templates\n    /// @dev Creates some generalized templates for different question types used in the DApp.\n    function RealityCheck() \n    public {\n        createTemplate('{\"title\": \"%s\", \"type\": \"bool\", \"category\": \"%s\"}');\n        createTemplate('{\"title\": \"%s\", \"type\": \"uint\", \"decimals\": 18, \"category\": \"%s\"}');\n        createTemplate('{\"title\": \"%s\", \"type\": \"int\", \"decimals\": 18, \"category\": \"%s\"}');\n        createTemplate('{\"title\": \"%s\", \"type\": \"single-select\", \"outcomes\": [%s], \"category\": \"%s\"}');\n        createTemplate('{\"title\": \"%s\", \"type\": \"multiple-select\", \"outcomes\": [%s], \"category\": \"%s\"}');\n        createTemplate('{\"title\": \"%s\", \"type\": \"datetime\", \"category\": \"%s\"}');\n    }\n\n    /// @notice Function for arbitrator to set an optional per-question fee. \n    /// @dev The per-question fee, charged when a question is asked, is intended as an anti-spam measure.\n    /// @param fee The fee to be charged by the arbitrator when a question is asked\n    function setQuestionFee(uint256 fee) \n        stateAny() \n    external {\n        arbitrator_question_fees[msg.sender] = fee;\n        LogSetQuestionFee(msg.sender, fee);\n    }\n\n    /// @notice Create a reusable template, which should be a JSON document.\n    /// Placeholders should use gettext() syntax, eg %s.\n    /// @dev Template data is only stored in the event logs, but its block number is kept in contract storage.\n    /// @param content The template content\n    /// @return The ID of the newly-created template, which is created sequentially.\n    function createTemplate(string content) \n        stateAny()\n    public returns (uint256) {\n        uint256 id = nextTemplateID;\n        templates[id] = block.number;\n        LogNewTemplate(id, msg.sender, content);\n        nextTemplateID = id.add(1);\n        return id;\n    }\n\n    /// @notice Create a new reusable template and use it to ask a question\n    /// @dev Template data is only stored in the event logs, but its block number is kept in contract storage.\n    /// @param content The template content\n    /// @param question A string containing the parameters that will be passed into the template to make the question\n    /// @param arbitrator The arbitration contract that will have the final word on the answer if there is a dispute\n    /// @param timeout How long the contract should wait after the answer is changed before finalizing on that answer\n    /// @param opening_ts If set, the earliest time it should be possible to answer the question.\n    /// @param nonce A user-specified nonce used in the question ID. Change it to repeat a question.\n    /// @return The ID of the newly-created template, which is created sequentially.\n    function createTemplateAndAskQuestion(\n        string content, \n        string question, address arbitrator, uint32 timeout, uint32 opening_ts, uint256 nonce \n    ) \n        // stateNotCreated is enforced by the internal _askQuestion\n    public payable returns (bytes32) {\n        uint256 template_id = createTemplate(content);\n        return askQuestion(template_id, question, arbitrator, timeout, opening_ts, nonce);\n    }\n\n    /// @notice Ask a new question and return the ID\n    /// @dev Template data is only stored in the event logs, but its block number is kept in contract storage.\n    /// @param template_id The ID number of the template the question will use\n    /// @param question A string containing the parameters that will be passed into the template to make the question\n    /// @param arbitrator The arbitration contract that will have the final word on the answer if there is a dispute\n    /// @param timeout How long the contract should wait after the answer is changed before finalizing on that answer\n    /// @param opening_ts If set, the earliest time it should be possible to answer the question.\n    /// @param nonce A user-specified nonce used in the question ID. Change it to repeat a question.\n    /// @return The ID of the newly-created question, created deterministically.\n    function askQuestion(uint256 template_id, string question, address arbitrator, uint32 timeout, uint32 opening_ts, uint256 nonce) \n        // stateNotCreated is enforced by the internal _askQuestion\n    public payable returns (bytes32) {\n\n        require(templates[template_id] > 0); // Template must exist\n\n        bytes32 content_hash = keccak256(template_id, opening_ts, question);\n        bytes32 question_id = keccak256(content_hash, arbitrator, timeout, msg.sender, nonce);\n\n        _askQuestion(question_id, content_hash, arbitrator, timeout, opening_ts);\n        LogNewQuestion(question_id, msg.sender, template_id, question, content_hash, arbitrator, timeout, opening_ts, nonce, now);\n\n        return question_id;\n    }\n\n    function _askQuestion(bytes32 question_id, bytes32 content_hash, address arbitrator, uint32 timeout, uint32 opening_ts) \n        stateNotCreated(question_id)\n    internal {\n\n        // A timeout of 0 makes no sense, and we will use this to check existence\n        require(timeout > 0); \n        require(timeout < 365 days); \n        require(arbitrator != NULL_ADDRESS);\n\n        uint256 bounty = msg.value;\n\n        // The arbitrator can set a fee for asking a question. \n        // This is intended as an anti-spam defence.\n        // The fee is waived if the arbitrator is asking the question.\n        // This allows them to set an impossibly high fee and make users proxy the question through them.\n        // This would allow more sophisticated pricing, question whitelisting etc.\n        if (msg.sender != arbitrator) {\n            uint256 question_fee = arbitrator_question_fees[arbitrator];\n            require(bounty >= question_fee); \n            bounty = bounty.sub(question_fee);\n            balanceOf[arbitrator] = balanceOf[arbitrator].add(question_fee);\n        }\n\n        questions[question_id].content_hash = content_hash;\n        questions[question_id].arbitrator = arbitrator;\n        questions[question_id].opening_ts = opening_ts;\n        questions[question_id].timeout = timeout;\n        questions[question_id].bounty = bounty;\n\n    }\n\n    /// @notice Add funds to the bounty for a question\n    /// @dev Add bounty funds after the initial question creation. Can be done any time until the question is finalized.\n    /// @param question_id The ID of the question you wish to fund\n    function fundAnswerBounty(bytes32 question_id) \n        stateOpen(question_id)\n    external payable {\n        questions[question_id].bounty = questions[question_id].bounty.add(msg.value);\n        LogFundAnswerBounty(question_id, msg.value, questions[question_id].bounty, msg.sender);\n    }\n\n    /// @notice Submit an answer for a question.\n    /// @dev Adds the answer to the history and updates the current \"best\" answer.\n    /// May be subject to front-running attacks; Substitute submitAnswerCommitment()->submitAnswerReveal() to prevent them.\n    /// @param question_id The ID of the question\n    /// @param answer The answer, encoded into bytes32\n    /// @param max_previous If specified, reverts if a bond higher than this was submitted after you sent your transaction.\n    function submitAnswer(bytes32 question_id, bytes32 answer, uint256 max_previous) \n        stateOpen(question_id)\n        bondMustDouble(question_id)\n        previousBondMustNotBeatMaxPrevious(question_id, max_previous)\n    external payable {\n        _addAnswerToHistory(question_id, answer, msg.sender, msg.value, false);\n        _updateCurrentAnswer(question_id, answer, questions[question_id].timeout);\n    }\n\n    /// @notice Submit the hash of an answer, laying your claim to that answer if you reveal it in a subsequent transaction.\n    /// @dev Creates a hash, commitment_id, uniquely identifying this answer, to this question, with this bond.\n    /// The commitment_id is stored in the answer history where the answer would normally go.\n    /// Does not update the current best answer - this is left to the later submitAnswerReveal() transaction.\n    /// @param question_id The ID of the question\n    /// @param answer_hash The hash of your answer, plus a nonce that you will later reveal\n    /// @param max_previous If specified, reverts if a bond higher than this was submitted after you sent your transaction.\n    /// @param _answerer If specified, the address to be given as the question answerer. Defaults to the sender.\n    /// @dev Specifying the answerer is useful if you want to delegate the commit-and-reveal to a third-party.\n    function submitAnswerCommitment(bytes32 question_id, bytes32 answer_hash, uint256 max_previous, address _answerer) \n        stateOpen(question_id)\n        bondMustDouble(question_id)\n        previousBondMustNotBeatMaxPrevious(question_id, max_previous)\n    external payable {\n\n        bytes32 commitment_id = keccak256(question_id, answer_hash, msg.value);\n        address answerer = (_answerer == NULL_ADDRESS) ? msg.sender : _answerer;\n\n        require(commitments[commitment_id].reveal_ts == COMMITMENT_NON_EXISTENT);\n\n        uint32 commitment_timeout = questions[question_id].timeout / COMMITMENT_TIMEOUT_RATIO;\n        commitments[commitment_id].reveal_ts = uint32(now).add(commitment_timeout);\n\n        _addAnswerToHistory(question_id, commitment_id, answerer, msg.value, true);\n\n    }\n\n    /// @notice Submit the answer whose hash you sent in a previous submitAnswerCommitment() transaction\n    /// @dev Checks the parameters supplied recreate an existing commitment, and stores the revealed answer\n    /// Updates the current answer unless someone has since supplied a new answer with a higher bond\n    /// msg.sender is intentionally not restricted to the user who originally sent the commitment; \n    /// For example, the user may want to provide the answer+nonce to a third-party service and let them send the tx\n    /// @param question_id The ID of the question\n    /// @param answer The answer, encoded as bytes32\n    /// @param nonce The nonce that, combined with the answer, recreates the answer_hash you gave in submitAnswerCommitment()\n    /// @param bond The bond that you paid in your submitAnswerCommitment() transaction\n    function submitAnswerReveal(bytes32 question_id, bytes32 answer, uint256 nonce, uint256 bond) \n        stateOpen(question_id)\n    external {\n\n        bytes32 answer_hash = keccak256(answer, nonce);\n        bytes32 commitment_id = keccak256(question_id, answer_hash, bond);\n\n        require(!commitments[commitment_id].is_revealed);\n        require(commitments[commitment_id].reveal_ts > uint32(now)); // Reveal deadline must not have passed\n\n        commitments[commitment_id].revealed_answer = answer;\n        commitments[commitment_id].is_revealed = true;\n\n        if (bond == questions[question_id].bond) {\n            _updateCurrentAnswer(question_id, answer, questions[question_id].timeout);\n        }\n\n        LogAnswerReveal(question_id, msg.sender, answer_hash, answer, nonce, bond);\n\n    }\n\n    function _addAnswerToHistory(bytes32 question_id, bytes32 answer_or_commitment_id, address answerer, uint256 bond, bool is_commitment) \n    internal \n    {\n        bytes32 new_history_hash = keccak256(questions[question_id].history_hash, answer_or_commitment_id, bond, answerer, is_commitment);\n\n        questions[question_id].bond = bond;\n        questions[question_id].history_hash = new_history_hash;\n\n        LogNewAnswer(answer_or_commitment_id, question_id, new_history_hash, answerer, bond, now, is_commitment);\n    }\n\n    function _updateCurrentAnswer(bytes32 question_id, bytes32 answer, uint32 timeout_secs)\n    internal {\n        questions[question_id].best_answer = answer;\n        questions[question_id].finalize_ts = uint32(now).add(timeout_secs);\n    }\n\n    /// @notice Notify the contract that the arbitrator has been paid for a question, freezing it pending their decision.\n    /// @dev The arbitrator contract is trusted to only call this if they've been paid, and tell us who paid them.\n    /// @param question_id The ID of the question\n    /// @param requester The account that requested arbitration\n    function notifyOfArbitrationRequest(bytes32 question_id, address requester) \n        onlyArbitrator(question_id)\n        stateOpen(question_id)\n    external {\n        questions[question_id].is_pending_arbitration = true;\n        LogNotifyOfArbitrationRequest(question_id, requester);\n    }\n\n    /// @notice Submit the answer for a question, for use by the arbitrator.\n    /// @dev Doesn't require (or allow) a bond.\n    /// If the current final answer is correct, the account should be whoever submitted it.\n    /// If the current final answer is wrong, the account should be whoever paid for arbitration.\n    /// However, the answerer stipulations are not enforced by the contract.\n    /// @param question_id The ID of the question\n    /// @param answer The answer, encoded into bytes32\n    /// @param answerer The account credited with this answer for the purpose of bond claims\n    function submitAnswerByArbitrator(bytes32 question_id, bytes32 answer, address answerer) \n        onlyArbitrator(question_id)\n        statePendingArbitration(question_id)\n        bondMustBeZero\n    external {\n\n        require(answerer != NULL_ADDRESS);\n        LogFinalize(question_id, answer);\n\n        questions[question_id].is_pending_arbitration = false;\n        _addAnswerToHistory(question_id, answer, answerer, 0, false);\n        _updateCurrentAnswer(question_id, answer, 0);\n\n    }\n\n    /// @notice Report whether the answer to the specified question is finalized\n    /// @param question_id The ID of the question\n    /// @return Return true if finalized\n    function isFinalized(bytes32 question_id) \n    constant public returns (bool) {\n        uint32 finalize_ts = questions[question_id].finalize_ts;\n        return ( !questions[question_id].is_pending_arbitration && (finalize_ts > UNANSWERED) && (finalize_ts <= uint32(now)) );\n    }\n\n    /// @notice Return the final answer to the specified question, or revert if there isn't one\n    /// @param question_id The ID of the question\n    /// @return The answer formatted as a bytes32\n    function getFinalAnswer(bytes32 question_id) \n        stateFinalized(question_id)\n    external constant returns (bytes32) {\n        return questions[question_id].best_answer;\n    }\n\n    /// @notice Return the final answer to the specified question, provided it matches the specified criteria.\n    /// @dev Reverts if the question is not finalized, or if it does not match the specified criteria.\n    /// @param question_id The ID of the question\n    /// @param content_hash The hash of the question content (template ID + opening time + question parameter string)\n    /// @param arbitrator The arbitrator chosen for the question (regardless of whether they are asked to arbitrate)\n    /// @param min_timeout The timeout set in the initial question settings must be this high or higher\n    /// @param min_bond The bond sent with the final answer must be this high or higher\n    /// @return The answer formatted as a bytes32\n    function getFinalAnswerIfMatches(\n        bytes32 question_id, \n        bytes32 content_hash, address arbitrator, uint32 min_timeout, uint256 min_bond\n    ) \n        stateFinalized(question_id)\n    external constant returns (bytes32) {\n        require(content_hash == questions[question_id].content_hash);\n        require(arbitrator == questions[question_id].arbitrator);\n        require(min_timeout <= questions[question_id].timeout);\n        require(min_bond <= questions[question_id].bond);\n        return questions[question_id].best_answer;\n    }\n\n    /// @notice Assigns the winnings (bounty and bonds) to everyone who gave the accepted answer\n    /// Caller must provide the answer history, in reverse order\n    /// @dev Works up the chain and assign bonds to the person who gave the right answer\n    /// If someone gave the winning answer earlier, they must get paid from the higher bond\n    /// That means we can't pay out the bond added at n until we have looked at n-1\n    /// The first answer is authenticated by checking against the stored history_hash.\n    /// One of the inputs to history_hash is the history_hash before it, so we use that to authenticate the next entry, etc\n    /// Once we get to a null hash we'll know we're done and there are no more answers.\n    /// Usually you would call the whole thing in a single transaction, but if not then the data is persisted to pick up later.\n    /// @param question_id The ID of the question\n    /// @param history_hashes Second-last-to-first, the hash of each history entry. (Final one should be empty).\n    /// @param addrs Last-to-first, the address of each answerer or commitment sender\n    /// @param bonds Last-to-first, the bond supplied with each answer or commitment\n    /// @param answers Last-to-first, each answer supplied, or commitment ID if the answer was supplied with commit->reveal\n    function claimWinnings(\n        bytes32 question_id, \n        bytes32[] history_hashes, address[] addrs, uint256[] bonds, bytes32[] answers\n    ) \n        stateFinalized(question_id)\n    public {\n\n        require(history_hashes.length > 0);\n\n        // These are only set if we split our claim over multiple transactions.\n        address payee = question_claims[question_id].payee; \n        uint256 last_bond = question_claims[question_id].last_bond; \n        uint256 queued_funds = question_claims[question_id].queued_funds; \n\n        // Starts as the hash of the final answer submitted. It'll be cleared when we're done.\n        // If we're splitting the claim over multiple transactions, it'll be the hash where we left off last time\n        bytes32 last_history_hash = questions[question_id].history_hash;\n\n        bytes32 best_answer = questions[question_id].best_answer;\n\n        uint256 i;\n        for (i = 0; i < history_hashes.length; i++) {\n        \n            // Check input against the history hash, and see which of 2 possible values of is_commitment fits.\n            bool is_commitment = _verifyHistoryInputOrRevert(last_history_hash, history_hashes[i], answers[i], bonds[i], addrs[i]);\n            \n            queued_funds = queued_funds.add(last_bond); \n            (queued_funds, payee) = _processHistoryItem(\n                question_id, best_answer, queued_funds, payee, \n                addrs[i], bonds[i], answers[i], is_commitment);\n \n            // Line the bond up for next time, when it will be added to somebody's queued_funds\n            last_bond = bonds[i];\n            last_history_hash = history_hashes[i];\n\n        }\n \n        if (last_history_hash != NULL_HASH) {\n            // We haven't yet got to the null hash (1st answer), ie the caller didn't supply the full answer chain.\n            // Persist the details so we can pick up later where we left off later.\n\n            // If we know who to pay we can go ahead and pay them out, only keeping back last_bond\n            // (We always know who to pay unless all we saw were unrevealed commits)\n            if (payee != NULL_ADDRESS) {\n                _payPayee(question_id, payee, queued_funds);\n                queued_funds = 0;\n            }\n\n            question_claims[question_id].payee = payee;\n            question_claims[question_id].last_bond = last_bond;\n            question_claims[question_id].queued_funds = queued_funds;\n        } else {\n            // There is nothing left below us so the payee can keep what remains\n            _payPayee(question_id, payee, queued_funds.add(last_bond));\n            delete question_claims[question_id];\n        }\n\n        questions[question_id].history_hash = last_history_hash;\n\n    }\n\n    function _payPayee(bytes32 question_id, address payee, uint256 value) \n    internal {\n        balanceOf[payee] = balanceOf[payee].add(value);\n        LogClaim(question_id, payee, value);\n    }\n\n    function _verifyHistoryInputOrRevert(\n        bytes32 last_history_hash,\n        bytes32 history_hash, bytes32 answer, uint256 bond, address addr\n    )\n    internal pure returns (bool) {\n        if (last_history_hash == keccak256(history_hash, answer, bond, addr, true) ) {\n            return true;\n        }\n        if (last_history_hash == keccak256(history_hash, answer, bond, addr, false) ) {\n            return false;\n        } \n        revert();\n    }\n\n    function _processHistoryItem(\n        bytes32 question_id, bytes32 best_answer, \n        uint256 queued_funds, address payee, \n        address addr, uint256 bond, bytes32 answer, bool is_commitment\n    )\n    internal returns (uint256, address) {\n\n        // For commit-and-reveal, the answer history holds the commitment ID instead of the answer.\n        // We look at the referenced commitment ID and switch in the actual answer.\n        if (is_commitment) {\n            bytes32 commitment_id = answer;\n            // If it's a commit but it hasn't been revealed, it will always be considered wrong.\n            if (!commitments[commitment_id].is_revealed) {\n                delete commitments[commitment_id];\n                return (queued_funds, payee);\n            } else {\n                answer = commitments[commitment_id].revealed_answer;\n                delete commitments[commitment_id];\n            }\n        }\n\n        if (answer == best_answer) {\n\n            if (payee == NULL_ADDRESS) {\n\n                // The entry is for the first payee we come to, ie the winner.\n                // They get the question bounty.\n                payee = addr;\n                queued_funds = queued_funds.add(questions[question_id].bounty);\n                questions[question_id].bounty = 0;\n\n            } else if (addr != payee) {\n\n                // Answerer has changed, ie we found someone lower down who needs to be paid\n\n                // The lower answerer will take over receiving bonds from higher answerer.\n                // They should also be paid the takeover fee, which is set at a rate equivalent to their bond. \n                // (This is our arbitrary rule, to give consistent right-answerers a defence against high-rollers.)\n\n                // There should be enough for the fee, but if not, take what we have.\n                // There's an edge case involving weird arbitrator behaviour where we may be short.\n                uint256 answer_takeover_fee = (queued_funds >= bond) ? bond : queued_funds;\n\n                // Settle up with the old (higher-bonded) payee\n                _payPayee(question_id, payee, queued_funds.sub(answer_takeover_fee));\n\n                // Now start queued_funds again for the new (lower-bonded) payee\n                payee = addr;\n                queued_funds = answer_takeover_fee;\n\n            }\n\n        }\n\n        return (queued_funds, payee);\n\n    }\n\n    /// @notice Convenience function to assign bounties/bonds for multiple questions in one go, then withdraw all your funds.\n    /// Caller must provide the answer history for each question, in reverse order\n    /// @dev Can be called by anyone to assign bonds/bounties, but funds are only withdrawn for the user making the call.\n    /// @param question_ids The IDs of the questions you want to claim for\n    /// @param lengths The number of history entries you will supply for each question ID\n    /// @param hist_hashes In a single list for all supplied questions, the hash of each history entry.\n    /// @param addrs In a single list for all supplied questions, the address of each answerer or commitment sender\n    /// @param bonds In a single list for all supplied questions, the bond supplied with each answer or commitment\n    /// @param answers In a single list for all supplied questions, each answer supplied, or commitment ID \n    function claimMultipleAndWithdrawBalance(\n        bytes32[] question_ids, uint256[] lengths, \n        bytes32[] hist_hashes, address[] addrs, uint256[] bonds, bytes32[] answers\n    ) \n        stateAny() // The finalization checks are done in the claimWinnings function\n    public {\n        \n        uint256 qi;\n        uint256 i;\n        for (qi = 0; qi < question_ids.length; qi++) {\n            bytes32 qid = question_ids[qi];\n            uint256 ln = lengths[qi];\n            bytes32[] memory hh = new bytes32[](ln);\n            address[] memory ad = new address[](ln);\n            uint256[] memory bo = new uint256[](ln);\n            bytes32[] memory an = new bytes32[](ln);\n            uint256 j;\n            for (j = 0; j < ln; j++) {\n                hh[j] = hist_hashes[i];\n                ad[j] = addrs[i];\n                bo[j] = bonds[i];\n                an[j] = answers[i];\n                i++;\n            }\n            claimWinnings(qid, hh, ad, bo, an);\n        }\n        withdraw();\n    }\n}\n",
  "sourcePath": "/var/www/html/live/truffle/contracts/RealityCheck.sol",
  "compiler": {
    "name": "solc",
    "version": "0.4.18+commit.9cf6e910.Emscripten.clang"
  },
  "schemaVersion": "1.0.1",
  "updatedAt": "2017-12-15T03:54:54.404Z"
}